{"abi":[{"type":"constructor","inputs":[],"stateMutability":"nonpayable"},{"type":"function","name":"balanceOf","inputs":[{"name":"","type":"address","internalType":"address"}],"outputs":[{"name":"","type":"uint256","internalType":"uint256"}],"stateMutability":"view"},{"type":"function","name":"transfer","inputs":[{"name":"to","type":"address","internalType":"address"},{"name":"value","type":"uint256","internalType":"uint256"}],"outputs":[{"name":"","type":"bool","internalType":"bool"}],"stateMutability":"nonpayable"},{"type":"event","name":"Transfer","inputs":[{"name":"from","type":"address","indexed":true,"internalType":"address"},{"name":"to","type":"address","indexed":true,"internalType":"address"},{"name":"value","type":"uint256","indexed":false,"internalType":"uint256"}],"anonymous":false}],"bytecode":{"object":"0x608060405234801561000f575f80fd5b5069d3c21bcecceda10000005f803373ffffffffffffffffffffffffffffffffffffffff1673ffffffffffffffffffffffffffffffffffffffff1681526020019081526020015f20819055503373ffffffffffffffffffffffffffffffffffffffff165f73ffffffffffffffffffffffffffffffffffffffff167fddf252ad1be2c89b69c2b068fc378daa952ba7f163c4a11628f55a4df523b3ef69d3c21bcecceda10000006040516100c2919061011a565b60405180910390a3610133565b5f819050919050565b5f819050919050565b5f819050919050565b5f6101046100ff6100fa846100cf565b6100e1565b6100d8565b9050919050565b610114816100ea565b82525050565b5f60208201905061012d5f83018461010b565b92915050565b6104d5806101405f395ff3fe608060405234801561000f575f80fd5b5060043610610034575f3560e01c806370a0823114610038578063a9059cbb14610068575b5f80fd5b610052600480360381019061004d919061029d565b610098565b60405161005f91906102e0565b60405180910390f35b610082600480360381019061007d9190610323565b6100ac565b60405161008f919061037b565b60405180910390f35b5f602052805f5260405f205f915090505481565b5f815f803373ffffffffffffffffffffffffffffffffffffffff1673ffffffffffffffffffffffffffffffffffffffff1681526020019081526020015f2054101561012c576040517f08c379a0000000000000000000000000000000000000000000000000000000008152600401610123906103ee565b60405180910390fd5b815f803373ffffffffffffffffffffffffffffffffffffffff1673ffffffffffffffffffffffffffffffffffffffff1681526020019081526020015f205f8282546101779190610439565b92505081905550815f808573ffffffffffffffffffffffffffffffffffffffff1673ffffffffffffffffffffffffffffffffffffffff1681526020019081526020015f205f8282546101c9919061046c565b925050819055508273ffffffffffffffffffffffffffffffffffffffff163373ffffffffffffffffffffffffffffffffffffffff167fddf252ad1be2c89b69c2b068fc378daa952ba7f163c4a11628f55a4df523b3ef8460405161022d91906102e0565b60405180910390a36001905092915050565b5f80fd5b5f73ffffffffffffffffffffffffffffffffffffffff82169050919050565b5f61026c82610243565b9050919050565b61027c81610262565b8114610286575f80fd5b50565b5f8135905061029781610273565b92915050565b5f602082840312156102b2576102b161023f565b5b5f6102bf84828501610289565b91505092915050565b5f819050919050565b6102da816102c8565b82525050565b5f6020820190506102f35f8301846102d1565b92915050565b610302816102c8565b811461030c575f80fd5b50565b5f8135905061031d816102f9565b92915050565b5f80604083850312156103395761033861023f565b5b5f61034685828601610289565b92505060206103578582860161030f565b9150509250929050565b5f8115159050919050565b61037581610361565b82525050565b5f60208201905061038e5f83018461036c565b92915050565b5f82825260208201905092915050565b7f496e73756666696369656e742062616c616e63650000000000000000000000005f82015250565b5f6103d8601483610394565b91506103e3826103a4565b602082019050919050565b5f6020820190508181035f830152610405816103cc565b9050919050565b7f4e487b71000000000000000000000000000000000000000000000000000000005f52601160045260245ffd5b5f610443826102c8565b915061044e836102c8565b92508282039050818111156104665761046561040c565b5b92915050565b5f610476826102c8565b9150610481836102c8565b92508282019050808211156104995761049861040c565b5b9291505056fea26469706673582212201b1d827b21ca4b9482539c88d5f972041fd294c438c94892ad527faf264eda7c64736f6c63430008140033","linkReferences":{}},"methodIdentifiers":{"balanceOf(address)":"70a08231","transfer(address,uint256)":"a9059cbb"},"id":0}